:020000040000FA
:0400000036EF00F0E7
:060008006A822DED07F0F5
:100018006A80D8CF5EF0E8CF5FF0E0CF60F0D9CF4C
:1000280061F0DACF62F09EAA1CEF00F01EEF00F03C
:100038002AEF00F0ABA223EF00F025EF00F028EF45
:1000480000F0AB980000AB887DEC06F062C0DAFFE8
:1000580061C0D9FF60C0E0FF5FC0E8FF5EC0D8FFA5
:080068006A9010009BEF06F006
:100600000000656E710E6518D8B409EF03F00BEFAA
:1006100003F073EF04F0510E6518D8B412EF03F035
:1006200014EF03F073EF04F0770E6518D8B41BEFE6
:1006300003F01DEF03F073EF04F0570E6518D8B404
:1006400024EF03F026EF03F073EF04F0650E651856
:10065000D8B42DEF03F02FEF03F073EF04F0450E45
:100660006518D8B436EF03F038EF03F073EF04F0F9
:10067000720E6518D8B43FEF03F041EF03F073EF4B
:1006800004F0520E6518D8B448EF03F04AEF03F0B7
:1006900073EF04F0740E6518D8B451EF03F053EF04
:1006A00003F073EF04F0540E6518D8B45AEF03F05A
:1006B0005CEF03F073EF04F0790E6518D8B463EFC4
:1006C00003F065EF03F073EF04F0590E6518D8B42A
:1006D0006CEF03F06EEF03F073EF04F0640E651837
:1006E000D8B475EF03F077EF03F073EF04F0440E26
:1006F0006518D8B47EEF03F080EF03F073EF04F0D9
:10070000660E6518D8B487EF03F089EF03F073EF36
:1007100004F0460E6518D8B490EF03F092EF03F0A2
:1007200073EF04F0670E6518D8B499EF03F09BEFF0
:1007300003F073EF04F0470E6518D8B4A2EF03F08E
:10074000A4EF03F073EF04F0680E6518D8B4ABEFB4
:1007500003F0ADEF03F073EF04F0480E6518D8B462
:10076000B4EF03F0B6EF03F073EF04F06A0E651810
:10077000D8B4BDEF03F0BFEF03F073EF04F04A0EFF
:100780006518D8B4C6EF03F0C8EF03F073EF04F0B8
:100790006B0E6518D8B4CFEF03F0D1EF03F073EF11
:1007A00004F04B0E6518D8B4D8EF03F0DAEF03F07D
:1007B00073EF04F06C0E6518D8B4E1EF03F0E3EFCB
:1007C00003F073EF04F04C0E6518D8B4EAEF03F0B1
:1007D000ECEF03F073EF04F07A0E6518D8B4F3EF82
:1007E00003F0F5EF03F073EF04F05A0E6518D8B478
:1007F000FCEF03F0FEEF03F073EF04F0780E6518E2
:10080000D8B405EF04F007EF04F073EF04F0580ECE
:100810006518D8B40EEF04F010EF04F073EF04F095
:10082000630E6518D8B417EF04F019EF04F073EFF6
:1008300004F0430E6518D8B420EF04F022EF04F062
:1008400073EF04F0760E6518D8B429EF04F02BEF9F
:1008500004F073EF04F0560E6518D8B432EF04F0CC
:1008600034EF04F073EF04F0620E6518D8B43BEF78
:1008700004F03DEF04F073EF04F0420E6518D8B4B5
:1008800044EF04F046EF04F073EF04F06E0E6518C9
:10089000D8B44DEF04F04FEF04F073EF04F04E0EB8
:1008A0006518D8B456EF04F058EF04F073EF04F075
:1008B0006D0E6518D8B45FEF04F061EF04F073EFCC
:1008C00004F04D0E6518D8B468EF04F06AEF04F038
:1008D00073EF04F02C0E6518D8A471EF04F073EFD9
:1008E00004F079EF04F0000E646E010E636E7DEF8C
:1008F00004F0000E646E000E636E12001A50D8B43D
:1009000084EF04F086EF04F0C6EF05F0C80E036E26
:1009100004501A18D8B48FEF04F091EF04F0C4EF2C
:1009200005F01AC004F013EF05F043C069F02EC0C3
:1009300068F0C4EF05F044C069F02FC068F0C4EF60
:1009400005F045C069F030C068F0C4EF05F046C05E
:1009500069F031C068F0C4EF05F047C069F032C0FB
:1009600068F0C4EF05F048C069F033C068F0C4EF28
:1009700005F049C069F034C068F0C4EF05F04AC022
:1009800069F035C068F0C4EF05F04BC069F036C0BF
:1009900068F0C4EF05F04CC069F037C068F0C4EFF0
:1009A00005F04DC069F038C068F0C4EF05F04EC0E6
:1009B00069F039C068F0C4EF05F04FC069F03AC083
:1009C00068F0C4EF05F050C069F03BC068F0C4EFB8
:1009D00005F051C069F03CC068F0C4EF05F052C0AA
:1009E00069F03DC068F0C4EF05F053C069F03EC047
:1009F00068F0C4EF05F054C069F03FC068F0C4EF80
:100A000005F055C069F040C068F0C4EF05F056C06D
:100A100069F041C068F0C4EF05F057C069F042C00A
:100A200068F0C4EF05F01A50656E666A6650000AF9
:100A3000D8B41DEF05F0C4EF05F065502C0AD8B40A
:100A40000DEF05F06E0AD8B4FBEF04F0010AD8B43C
:100A5000EFEF04F0070AD8B4B9EF04F0010AD8B4F4
:100A6000A1EF04F0030AD8B4BFEF04F0010AD8B430
:100A7000C5EF04F00F0AD8B4CBEF04F0020AD8B4E3
:100A8000D1EF04F0010AD8B4D7EF04F0070AD8B4C4
:100A9000DDEF04F0010AD8B407EF05F0030AD8B47B
:100AA00001EF05F01F0AD8B495EF04F0030AD8B49B
:100AB000A7EF04F0060AD8B4ADEF04F0020AD8B4E8
:100AC000F5EF04F0010AD8B49BEF04F00F0AD8B494
:100AD000E9EF04F0010AD8B4B3EF04F0030AD8B484
:100AE000E3EF04F0380AD8B4FBEF04F0010AD8B4FD
:100AF000EFEF04F0070AD8B4B9EF04F0010AD8B454
:100B0000A1EF04F0030AD8B4BFEF04F0010AD8B48F
:100B1000C5EF04F00F0AD8B4CBEF04F0020AD8B442
:100B2000D1EF04F0010AD8B4D7EF04F0070AD8B423
:100B3000DDEF04F0010AD8B407EF05F0030AD8B4DA
:100B400001EF05F01F0AD8B495EF04F0030AD8B4FA
:100B5000A7EF04F0060AD8B4ADEF04F0020AD8B447
:100B6000F5EF04F0010AD8B49BEF04F00F0AD8B4F3
:100B7000E9EF04F0010AD8B4B3EF04F0030AD8B4E3
:100B8000E3EF04F0C4EF05F05FEC06F01200000E96
:100B90005D6E59BED0EF05F0CEEF05F0D6EF05F053
:100BA000586C591ED8B0592A010E5D6E5BBEDDEF40
:100BB00005F0DBEF05F0E1EF05F05A6C5B1ED8B0F5
:100BC0005B2A5A505B10D8B4E8EF05F0EAEF05F065
:100BD0000EEF06F0010E5C6EF2EF05F0D8905A367B
:100BE0005B365C2A5BAEF7EF05F0F9EF05F0EEEF50
:100BF00005F05A50585C5B505958D8A002EF06F0E7
:100C000004EF06F008EF06F05A50585E5B50595A50
:100C1000D8905B325A325C2EF9EF05F05D50D8B4B3
:100C200014EF06F016EF06F01AEF06F0586C591E96
:100C3000D8B0592A58C058F059C059F01200FFECEA
:100C400006F0000E056E000E036E000E046E43C02B
:100C500069F02EC068F01A0E656E30EC07F0666E13
:100C6000EAEC06F07EEC04F069C0BFFF68C0BEFF8E
:100C7000000EB36E000EB26E9E940350D8B443EFD4
:100C800006F045EF06F02BEF06F0045001EC03F000
:100C900063506410D8B44FEF06F051EF06F02BEF1D
:100CA00006F00306B1809EA458EF06F05AEF06F056
:100CB00053EF06F0B1902BEF06F036EF00F0000E88
:100CC000646E000E636E6350060FD96EDA6ADF6AD7
:100CD000634A642A64BE76EF06F0645009E10A0EA6
:100CE000635CD8A076EF06F078EF06F063EF06F0CD
:100CF000000E026E000E016E12000150060FD96E3A
:100D0000DA6AAECFDFFF0150060FD96EDA6ADF5024
:100D1000B8EC06F0014A022A01C058F002C059F0AE
:100D2000000E5B6E0A0E5A6EC7EC05F058C001F05B
:100D300059C002F01200AA0EF66E0D0EF76E000EEC
:100D4000F86E00EE2EF010EE2AF00900F5CFEEFF5F
:100D5000E550E150FAE100EE01F02D0EEE6AE806F2
:100D6000FDE16A906A92000EF86E00011FEF06F036
:100D7000586EACA2BEEF06F0C0EF06F0B9EF06F079
:100D800058C0ADFF0D0E5818D8A4C9EF06F0CBEF30
:100D900006F0D4EF06F0ACA2D0EF06F0D2EF06F0EA
:100DA000CBEF06F00A0EAD6E12004DDA30F7E1E936
:100DB00077A7ED98FC70F4BC53F6CC7E38FADE0DC4
:100DC0000B0B0908070706050504040303030202C9
:100DD0000202010165C067F0662A6604D96EDA6A0C
:100DE000672A6704E16EE26ADFCFE7FFE750D8A425
:100DF000FCEF06F0FEEF06F0ECEF06F01200020E3C
:100E0000BD6E9380000E8A6E9494400EB16E9496DF
:100E10008B860F0EC16E29EC07F023EC07F012EC65
:100E200007F01200948C948EAC98AC94B896330E64
:100E3000AF6EAB8E9E889E9AAC8AAB889D989F9829
:100E40009D8A9F9A1200F292F288D08EF28EF28CD6
:100E50001200D38CD38AD398120006006A92110034
:040E6000060E120068
:020000040020DA
:08000000FFFFFFFFFFFFFFFF00
:020000040030CA
:0E000000FF881F00FF8381FF0FC00FE00F403D
:00000001FF
